:020000040800F2
:10000000A8040020C5000008E10D0008DF0D00086D
:1000100000000000000000000000000000000000E0
:10002000000000000000000000000000270E000893
:100030000000000000000000250E0008290E000846
:10004000D700000800000000D7000008D700000813
:10005000D7000008D7000008D7000008D700000824
:1000600000000000D7000008D7000008D7000008F3
:10007000D7000008E10E0008D700000800000000CB
:10008000D70000080000000000000000D7000008B2
:1000900000000000D7000008D10E0008D7000008BB
:1000A00000000000D700000800000000D700000892
:1000B0000348854600F03CF800480047C10F00089F
:1000C000A80400200448804704480047FEE7FEE7F4
:1000D000FEE7FEE7FEE7FEE7790E0008B100000844
:1000E00030B50B46014600202022012409E00D46D0
:1000F000D5409D4205D31D469540491B2546954058
:1001000040191546521E002DF1DC30BDD2B201E07F
:100110000270401C491EFBD270470022F6E710B562
:1001200013460A4604461946FFF7F0FF204610BD65
:10013000064C0125064E05E0E36807CC2B430C3C3A
:1001400098471034B442F7D3FFF7B6FF20110008E8
:1001500040110008BCB5019000F0DEF8044601989B
:10016000451C00D1054600F0D7F8001BA842FAD381
:10017000BCBD0000F0B588B004465A48844201D0A6
:10018000052000E00320009000263346324603910C
:10019000A1E00125049595402F400297002F00D142
:1001A00096E0069205930196486810220243122AAF
:1001B00010D10E461C21059801400F228A40069856
:1001C000C708BF00E7193B6A934332698A401A4364
:1001D0003A62706803273946019EB14023688B4319
:1001E00002463A40B2401A432260C943122813D84B
:1001F000049A82403D4B1A420ED0A2680A40039BEB
:10020000DB68B3401343A360C206D20F069B9A403B
:100210006368AB4313436360E2680A4003998B68E9
:10022000B3401343E360C000059B069A50D55A487B
:1002300001460068049D284308600868284007902C
:1002400011460C221A400F2090400B46BB430799E1
:1002500027495F5887435D180920C006844209D0AA
:100260002448844209D0244884420098039906D146
:10027000022004E00020039901E0039904989040D3
:1002800038432860184803684A68D00302D5029DA5
:100290002B4301E0029DAB43134803604368900386
:1002A00001D52B4300E0AB430F4843608368D00285
:1002B00001D52B4300E0AB430B488360C368900239
:1002C00001D52B4300E0AB43069A0748C360059B6A
:1002D000B61C1B1D521C0F683846D04000D058E792
:1002E00008B0F0BD000C0048000401400600060004
:1002F0000800014000040048000800480069084068
:10030000002800D001207047002A01D0182200E008
:100310002822815070470000044800687047C0469A
:1003200002480168491C01607047C046A4000020D3
:1003300010B56A48016810220A4302600024204672
:1003400000F004F800F014F8204610BDB0B50446E3
:1003500000F0CAF87D21C900FFF7C2FE00F042FBA1
:100360000025E84321462A4600F022F82846B0BD81
:1003700082B00948016801221143016001681140FF
:1003800001910199110742680A43426040680840A0
:100390000090009802B07047181002401F210140E1
:1003A00001208840014908607047C04600E100E034
:1003B00080B500F017FD80BDF8B50D46474A1168BD
:1003C00001242140A94208D211680126B1432943E2
:1003D000116011683140A94249D101688A0707D5E7
:1003E000544A16461268F0239A43836813433360D5
:1003F0000090C9072AD13949086801263040A8422F
:10040000009A07D90868B04328430860086830405C
:10041000A8422CD11078400708D507200002454992
:100420000B4609688143D0680843186000F062F801
:10043000404909680906090F2A4A515CC8402C49FD
:10044000086000263046FFF781FF10E0009B5968E6
:100450003848021F012902D11268920305E0126890
:10046000022901D1920100E09207264602D43046CB
:1004700001B0F0BD2F48024600680326B043084390
:1004800010601C46FFF748FF07466068144C0128BF
:100490000DD0022817D1274800680C2101400829F7
:1004A000A9D0FFF739FFC01BA042F4D9DFE72148EC
:1004B00000680C21014004299DD0FFF72DFFC01BCF
:1004C000A042F4D9D3E71B4800680007800F92D000
:1004D000FFF722FFC01BA042F5D9C8E70020024069
:1004E000881300000E110008014800687047C046DC
:1004F0000800002010B50F490A680C2313400E486D
:10050000042B0AD0082B0AD193021B0F0BA4E45C26
:10051000896AD20305D4114809E0044608E0104C6A
:1005200006E00F22114009A2515CFFF7D9FD4443B8
:10053000204610BD04100240808D5B0002030405BC
:10054000060708090A0B0C0D0E0F10100102030418
:1005500005060708090A0B0C0D0E0F1000093D00D7
:1005600000127A00F0B585B007460078C007DD4E6E
:10057000039753D071680C200140042906D071689C
:100580000140082909D17068C00306D5306880038E
:1005900044D57868002841D103E17968002904D066
:1005A00001291AD1012001041FE001200104326851
:1005B0008A433260810432688A4332604404FFF720
:1005C000ABFE0546039F3068204227D0FFF7A4FE0C
:1005D000411B03206429F6D954E13068052907D16D
:1005E00001218A041043306009043068084306E0A2
:1005F00001210A04904330608904306888433060E8
:1006000001204404FFF788FE05463068204205D1EA
:10061000FFF782FE401B6428F7D932E13878800763
:100620002DD570680007800F1BD070680C21014029
:10063000082902D17068C00313D5F9683068002911
:1006400000D1C9E0012108433060FFF765FE05468F
:10065000306880070CD4FFF75FFE401B0228F7D9F3
:100660000FE13068800703D5F868012800D098E0D2
:100670003068F82188433969C9000143316038780E
:10068000000721D5F969706A00290ED001210843BD
:100690007062FFF741FE0546706A800714D4FFF7C9
:1006A0003BFE401B0228F7D9EBE001218843706232
:1006B000FFF732FE0546706A800705D5FFF72CFE6E
:1006C000401B0228F7D9DCE0387840071AD4387884
:1006D000C0065CD5039C616901294BD1706B042174
:1006E00001437163706B012101437163FFF714FED5
:1006F0000546706B800743D4FFF70EFE401B0228AF
:10070000F7D9BEE001221107F069C0000091029202
:1007100002D50020019007E0F0690843F061F0691C
:1007200008400490049801926F4F3868C00510D4B7
:1007300002980402386820433860FFF7EDFD054653
:100740003868204205D1FFF7E7FD401B6428F7D940
:1007500097E003988168654F00294DD0012905D0A5
:10076000306A05297BD1042108433062306A02993E
:1007700008437AE0706B491D52D1042188437063AD
:10078000706BF8218843A169C90001437163039824
:10079000076A0022002F06D070680C21014008294A
:1007A00003D101206EE010466CE002920124210684
:1007B0003068019188433060FFF7AEFD0546022F97
:1007C00042D167063068384268D0FFF7A5FD411B6B
:1007D00003200229F6D955E0012188433060FFF754
:1007E0009BFD05463068800700D448E7FFF794FD7D
:1007F000401B0228F6D944E0306A029988433062EF
:10080000306A042188433062FFF786FD0546306A6E
:10081000800739D5FFF780FD401BB842F7D930E09B
:10082000042108437063706B012188437063FFF7F4
:1008300073FD0546706B8007A9D5FFF76DFD411B61
:1008400003200229F6D91DE064063068204246D014
:10085000FFF762FD411B03200329F6D312E0029942
:1008600088433062306A042188433062FFF754FDC8
:100870000546306A800707D4FFF74EFD401BB8429B
:10088000F7D9032005B0F0BD01980028039F00D1DF
:100890001DE7F06900998843F06118E7F06A0F21BD
:1008A0008843039AD16A0143F1623D2000047168D4
:1008B0008143906A0843516A01437160306801992D
:1008C00008433060FFF728FD04463068384206D1FF
:1008D000FFF722FD011B03200229F6D9D2E7029877
:1008E000D0E7C046001002400070004088130000AE
:1008F000F8B538480221384FB847384E30800920C3
:10090000C406012569022046B8477080A902204626
:10091000B847B080308800280FD03088012818D11F
:100920002F480021C1800189491C01810189C92901
:100930000FD3C921018105700BE02948C188491CEA
:10094000C18000210181C288C92A02D3C922C28084
:100950000170708800280FD07088012818D12048B5
:10096000002141818189491C81818189C9290FD355
:10097000C921818145700BE019484189491C418199
:10098000002181814289C92A02D3C9224281417052
:10099000B08800280FD0B088012819D11048002154
:1009A000C181018A491C0182018AC92910D3C92148
:1009B000018285700CE00A48C189491CC18100216F
:1009C0000182C289C92A03D3C922C2818170F8BDBC
:1009D000F8BDC04600040048FD02000800000020E9
:1009E00010000020401E010E01D001207047074971
:1009F000074A5060074803680B40032189075918CC
:100A0000016000209060072111607047FFFFFF0028
:100A100010E000E020ED00E080B5FFF769FF80BD49
:100A20007047704770B53C22825C012A01D10220D8
:100A300070BD02463C323D230224C45404686568FC
:100A40007026B54365600D6866682E436660A568CC
:100A50008026B543A5604968A5680D43A5600121BE
:100A6000C1540020107070BDB0B5002816D00446E7
:100A70003D20205C25463D35002805D13C20002145
:100A80002154204600F00CF80220287001CC2146A9
:100A900000F02CFA012028700020B0BD0120B0BD6C
:100AA0001CB50068CB4988420ED0114988421ED13E
:100AB0000120C0020F490A6802430A600968014028
:100AC000019101980D240AE00120800409490A6877
:100AD00002430A6009680140009100981624002131
:100AE00020460A46FFF764FC2046FFF757FC1CBD72
:100AF000002C0140181002400068C1680122114317
:100B0000C160016811430160002070470068C2683D
:100B100001218A43C260026A054B1A4206D1026A69
:100B2000044B1A4202D102688A43026000207047D7
:100B30001111000044040000F8B504463C20205C7C
:100B4000012801D1022080E025463C3501262E7087
:100B50003D2002222254206883683D4A134083606E
:100B600027463D370B68002B18D0102B1BD0202BAD
:100B70001ED0302B21D0402B24D0502B2CD0602BDA
:100B800034D0702B3DD07403A3424AD031038B4242
:100B900058D1816807229143816053E08168072220
:100BA0000A4370212BE0816817220A43602126E066
:100BB000816827220A43502121E0816837220A43B5
:100BC00040211CE0CA68496800F0D6F920688168B5
:100BD00047220A43302112E0CA68496800F0CCF984
:100BE0002068816857220A43202108E0CA684968C2
:100BF00000F0D3F92068816867220A4310218A43F4
:100C00001FE04B6800938C68CB6877328168114095
:100C1000009A14431A0222430A43826081687722B1
:100C20000EE04B6800938C68CB6877328168114086
:100C3000009A14431A0222430A438260B103826875
:100C40000A4382603E700020287001B0F0BDC046AB
:100C50008800FFFF7047B0B504468020C543206878
:100C60000169890717D5C168890714D529467E31DE
:100C70000161012121778069800703D02046FFF7B9
:100C8000E9FF05E0204600F08AF8204600F088F8E9
:100C90000020207720680169490718D5C1684907F5
:100CA00015D529467C3101610221217780698005B3
:100CB000800F03D02046FFF7CDFF05E0204600F06F
:100CC0006EF8204600F06CF800202077206801695B
:100CD000090717D5C168090714D52946783101617C
:100CE00004212177C069800703D02046FFF7B2FFB7
:100CF00005E0204600F053F8204600F051F80020AF
:100D0000207720680169C90618D5C168C90615D5BC
:100D100029467031016108212177C0698005800F63
:100D200003D02046FFF796FF05E0204600F037F895
:100D3000204600F035F80020207720680169C907B7
:100D400009D0C168C90706D029467F310161204614
:100D500000F028F820680169090607D5C16809066E
:100D600004D505612046FFF75BFE2068016949064E
:100D700009D5C168490606D529464031016120469A
:100D800000F02CF820680169890607D5C16889063A
:100D900004D5603505612046FFF743FEB0BD7047BE
:100DA0007047000070B50068CE49884200D070BD21
:100DB000CB4DA888401CA88080B2CB4E064CFF28A3
:100DC00005D928461430FFF7A1FE0020A880266030
:100DD000206170BD00480140180000487047FEE7E0
:100DE00070470000002805DB0322034693430B4AAB
:100DF0009A1806E00F220240083A03239A43084B50
:100E0000D2188007C00E8901C9B28140FF238340F8
:100E100010689843084310607047C04600E400E043
:100E20001CED00E07047704780B5FFF779FAFFF7D7
:100E3000F3FD80BDF0B591B005AC20460830182117
:100E4000FFF76BF9002610960320C0040F900125D0
:100E500028040E9002270D97069505952046FFF76A
:100E600081FB0496039602970720019001A829466A
:100E7000FFF7A2FA11B0F0BD1248026801210A433F
:100E800002604268104B1340436002680F4B1340EE
:100E900003608A040368934303603F22120443689B
:100EA00093434360C26A0F239A43C262FF22143203
:100EB000036B93430363426B8A4342630021816067
:100EC0007047C046001002400CB8FF08FFFFF6FE56
:100ED00080B50248FFF7BFFE80BDC0462400002059
:100EE00080B57C48FFF7B7FE80BDC046F0B5056809
:100EF0001E4E7C4F794A904202D01D4B98420AD137
:100F0000C41B63426341861B744274417026B5431F
:100F10004E682E430FE0C41B63426341821B544260
:100F20005441144A904205D0B84203D0B0422E46F4
:100F300001D005E02E46032212029643CD683543C8
:100F4000802295434A692A4302608A68C2620A681D
:100F50008262002B04D1614A904201D0002C01D062
:100F60000969016301214161F0BDC04600440140AF
:100F70000004004000200040B0B5036A046A012567
:100F8000AC4304628469F025AC43120122438261C0
:100F90000A2293430B430362B0BD10B5036A1024C9
:100FA000A34303620F231B0384699C431203224360
:100FB000036A8261A022934309011943016210BDB3
:100FC00088B0FFF7B5F9FFF735FF00250595012734
:100FD000B9053D4802680A43026002680A40069269
:100FE0000699790402680A43026002680A40069280
:100FF0000699B90402680A43026000680840069036
:1010000006980920C406FF26204631462A46FFF7E7
:101010007BF90097049703950297019601AE2B4F39
:1010200020463146B8470395029502200190284892
:101030003146B847039502950320400201902046AF
:101040003146B847049503950295224E224F312030
:1010500022493160311DA1C135617561B5613046EC
:10106000FFF702FD00980003019001A93046FFF749
:1010700063FD0795069506A93046FFF7D3FC184E89
:101080007D200001293717497161B761F561306230
:101090007562B562F56214363046FFF7E5FC124D15
:1010A000A561124F3888012803D13046FFF724FD8F
:1010B00006E07888012803D13046FFF727FDA561B7
:1010C0000520FFF747F8EDE714100240750100080E
:1010D0000004004864000020BF030000002C014011
:1010E0001000002000480140FFFF00000000002029
:1010F00002E008C8121F08C1002AFAD170477047E1
:10110000002001E001C1121F002AFBD1704700003E
:1011100000000000000001020304060708090000A7
:10112000401100080000002010000000F01000082E
:101130005011000810000020980400000011000861
:10114000030003000300000000127A00000000000A
:04000005080000B13E
:00000001FF
